{
  "_format": "hh-sol-artifact-1",
  "contractName": "ProfileMatcher",
  "sourceName": "contracts/ProfileMatcher.sol",
  "abi": [
    {
      "inputs": [
        {
          "internalType": "address",
          "name": "_userRegistry",
          "type": "address"
        },
        {
          "internalType": "address",
          "name": "initialOwner",
          "type": "address"
        }
      ],
      "stateMutability": "nonpayable",
      "type": "constructor"
    },
    {
      "inputs": [
        {
          "internalType": "address",
          "name": "owner",
          "type": "address"
        }
      ],
      "name": "OwnableInvalidOwner",
      "type": "error"
    },
    {
      "inputs": [
        {
          "internalType": "address",
          "name": "account",
          "type": "address"
        }
      ],
      "name": "OwnableUnauthorizedAccount",
      "type": "error"
    },
    {
      "anonymous": false,
      "inputs": [
        {
          "indexed": true,
          "internalType": "address",
          "name": "user1",
          "type": "address"
        },
        {
          "indexed": true,
          "internalType": "address",
          "name": "user2",
          "type": "address"
        },
        {
          "indexed": false,
          "internalType": "uint256",
          "name": "score",
          "type": "uint256"
        }
      ],
      "name": "MatchCreated",
      "type": "event"
    },
    {
      "anonymous": false,
      "inputs": [
        {
          "indexed": true,
          "internalType": "address",
          "name": "previousOwner",
          "type": "address"
        },
        {
          "indexed": true,
          "internalType": "address",
          "name": "newOwner",
          "type": "address"
        }
      ],
      "name": "OwnershipTransferred",
      "type": "event"
    },
    {
      "inputs": [
        {
          "internalType": "address",
          "name": "",
          "type": "address"
        },
        {
          "internalType": "address",
          "name": "",
          "type": "address"
        }
      ],
      "name": "matches",
      "outputs": [
        {
          "internalType": "address",
          "name": "user1",
          "type": "address"
        },
        {
          "internalType": "address",
          "name": "user2",
          "type": "address"
        },
        {
          "internalType": "uint256",
          "name": "score",
          "type": "uint256"
        },
        {
          "internalType": "uint256",
          "name": "timestamp",
          "type": "uint256"
        }
      ],
      "stateMutability": "view",
      "type": "function"
    },
    {
      "inputs": [],
      "name": "owner",
      "outputs": [
        {
          "internalType": "address",
          "name": "",
          "type": "address"
        }
      ],
      "stateMutability": "view",
      "type": "function"
    },
    {
      "inputs": [
        {
          "internalType": "address",
          "name": "user1",
          "type": "address"
        },
        {
          "internalType": "address",
          "name": "user2",
          "type": "address"
        },
        {
          "internalType": "uint256",
          "name": "score",
          "type": "uint256"
        }
      ],
      "name": "recordMatch",
      "outputs": [],
      "stateMutability": "nonpayable",
      "type": "function"
    },
    {
      "inputs": [],
      "name": "renounceOwnership",
      "outputs": [],
      "stateMutability": "nonpayable",
      "type": "function"
    },
    {
      "inputs": [
        {
          "internalType": "address",
          "name": "newOwner",
          "type": "address"
        }
      ],
      "name": "transferOwnership",
      "outputs": [],
      "stateMutability": "nonpayable",
      "type": "function"
    },
    {
      "inputs": [],
      "name": "userRegistry",
      "outputs": [
        {
          "internalType": "contract UserRegistry",
          "name": "",
          "type": "address"
        }
      ],
      "stateMutability": "view",
      "type": "function"
    }
  ],
  "bytecode": "0x608060405234801561001057600080fd5b5060405161117538038061117583398181016040528101906100329190610224565b80600073ffffffffffffffffffffffffffffffffffffffff168173ffffffffffffffffffffffffffffffffffffffff16036100a55760006040517f1e4fbdf700000000000000000000000000000000000000000000000000000000815260040161009c9190610273565b60405180910390fd5b6100b4816100fd60201b60201c565b5081600160006101000a81548173ffffffffffffffffffffffffffffffffffffffff021916908373ffffffffffffffffffffffffffffffffffffffff160217905550505061028e565b60008060009054906101000a900473ffffffffffffffffffffffffffffffffffffffff169050816000806101000a81548173ffffffffffffffffffffffffffffffffffffffff021916908373ffffffffffffffffffffffffffffffffffffffff1602179055508173ffffffffffffffffffffffffffffffffffffffff168173ffffffffffffffffffffffffffffffffffffffff167f8be0079c531659141344cd1fd0a4f28419497f9722a3daafe3b4186f6b6457e060405160405180910390a35050565b600080fd5b600073ffffffffffffffffffffffffffffffffffffffff82169050919050565b60006101f1826101c6565b9050919050565b610201816101e6565b811461020c57600080fd5b50565b60008151905061021e816101f8565b92915050565b6000806040838503121561023b5761023a6101c1565b5b60006102498582860161020f565b925050602061025a8582860161020f565b9150509250929050565b61026d816101e6565b82525050565b60006020820190506102886000830184610264565b92915050565b610ed88061029d6000396000f3fe608060405234801561001057600080fd5b50600436106100625760003560e01c80631a89e86b146100675780635c7460d614610083578063715018a6146100a15780638cca6882146100ab5780638da5cb5b146100de578063f2fde38b146100fc575b600080fd5b610081600480360381019061007c9190610999565b610118565b005b61008b610638565b6040516100989190610a4b565b60405180910390f35b6100a961065e565b005b6100c560048036038101906100c09190610a66565b610672565b6040516100d59493929190610ac4565b60405180910390f35b6100e66106ef565b6040516100f39190610b09565b60405180910390f35b61011660048036038101906101119190610b24565b610718565b005b61012061079e565b6000600160009054906101000a900473ffffffffffffffffffffffffffffffffffffffff1673ffffffffffffffffffffffffffffffffffffffff1663a87430ba856040518263ffffffff1660e01b815260040161017d9190610b09565b600060405180830381865afa15801561019a573d6000803e3d6000fd5b505050506040513d6000823e3d601f19601f820116820180604052508101906101c39190610cff565b93505050506000600160009054906101000a900473ffffffffffffffffffffffffffffffffffffffff1673ffffffffffffffffffffffffffffffffffffffff1663a87430ba856040518263ffffffff1660e01b81526004016102259190610b09565b600060405180830381865afa158015610242573d6000803e3d6000fd5b505050506040513d6000823e3d601f19601f8201168201806040525081019061026b9190610cff565b9350505050816102b0576040517f08c379a00000000000000000000000000000000000000000000000000000000081526004016102a790610dfb565b60405180910390fd5b806102f0576040517f08c379a00000000000000000000000000000000000000000000000000000000081526004016102e790610e67565b60405180910390fd5b60405180608001604052808673ffffffffffffffffffffffffffffffffffffffff1681526020018573ffffffffffffffffffffffffffffffffffffffff16815260200184815260200142815250600260008773ffffffffffffffffffffffffffffffffffffffff1673ffffffffffffffffffffffffffffffffffffffff16815260200190815260200160002060008673ffffffffffffffffffffffffffffffffffffffff1673ffffffffffffffffffffffffffffffffffffffff16815260200190815260200160002060008201518160000160006101000a81548173ffffffffffffffffffffffffffffffffffffffff021916908373ffffffffffffffffffffffffffffffffffffffff16021790555060208201518160010160006101000a81548173ffffffffffffffffffffffffffffffffffffffff021916908373ffffffffffffffffffffffffffffffffffffffff160217905550604082015181600201556060820151816003015590505060405180608001604052808573ffffffffffffffffffffffffffffffffffffffff1681526020018673ffffffffffffffffffffffffffffffffffffffff16815260200184815260200142815250600260008673ffffffffffffffffffffffffffffffffffffffff1673ffffffffffffffffffffffffffffffffffffffff16815260200190815260200160002060008773ffffffffffffffffffffffffffffffffffffffff1673ffffffffffffffffffffffffffffffffffffffff16815260200190815260200160002060008201518160000160006101000a81548173ffffffffffffffffffffffffffffffffffffffff021916908373ffffffffffffffffffffffffffffffffffffffff16021790555060208201518160010160006101000a81548173ffffffffffffffffffffffffffffffffffffffff021916908373ffffffffffffffffffffffffffffffffffffffff16021790555060408201518160020155606082015181600301559050508373ffffffffffffffffffffffffffffffffffffffff168573ffffffffffffffffffffffffffffffffffffffff167fab8add8f62f43e57de17a59ddf8165cdae8775f9a896edbc3f82cc10883f023a856040516106299190610e87565b60405180910390a35050505050565b600160009054906101000a900473ffffffffffffffffffffffffffffffffffffffff1681565b61066661079e565b6106706000610825565b565b6002602052816000526040600020602052806000526040600020600091509150508060000160009054906101000a900473ffffffffffffffffffffffffffffffffffffffff16908060010160009054906101000a900473ffffffffffffffffffffffffffffffffffffffff16908060020154908060030154905084565b60008060009054906101000a900473ffffffffffffffffffffffffffffffffffffffff16905090565b61072061079e565b600073ffffffffffffffffffffffffffffffffffffffff168173ffffffffffffffffffffffffffffffffffffffff16036107925760006040517f1e4fbdf70000000000000000000000000000000000000000000000000000000081526004016107899190610b09565b60405180910390fd5b61079b81610825565b50565b6107a66108e9565b73ffffffffffffffffffffffffffffffffffffffff166107c46106ef565b73ffffffffffffffffffffffffffffffffffffffff1614610823576107e76108e9565b6040517f118cdaa700000000000000000000000000000000000000000000000000000000815260040161081a9190610b09565b60405180910390fd5b565b60008060009054906101000a900473ffffffffffffffffffffffffffffffffffffffff169050816000806101000a81548173ffffffffffffffffffffffffffffffffffffffff021916908373ffffffffffffffffffffffffffffffffffffffff1602179055508173ffffffffffffffffffffffffffffffffffffffff168173ffffffffffffffffffffffffffffffffffffffff167f8be0079c531659141344cd1fd0a4f28419497f9722a3daafe3b4186f6b6457e060405160405180910390a35050565b600033905090565b6000604051905090565b600080fd5b600080fd5b600073ffffffffffffffffffffffffffffffffffffffff82169050919050565b600061093082610905565b9050919050565b61094081610925565b811461094b57600080fd5b50565b60008135905061095d81610937565b92915050565b6000819050919050565b61097681610963565b811461098157600080fd5b50565b6000813590506109938161096d565b92915050565b6000806000606084860312156109b2576109b16108fb565b5b60006109c08682870161094e565b93505060206109d18682870161094e565b92505060406109e286828701610984565b9150509250925092565b6000819050919050565b6000610a11610a0c610a0784610905565b6109ec565b610905565b9050919050565b6000610a23826109f6565b9050919050565b6000610a3582610a18565b9050919050565b610a4581610a2a565b82525050565b6000602082019050610a606000830184610a3c565b92915050565b60008060408385031215610a7d57610a7c6108fb565b5b6000610a8b8582860161094e565b9250506020610a9c8582860161094e565b9150509250929050565b610aaf81610925565b82525050565b610abe81610963565b82525050565b6000608082019050610ad96000830187610aa6565b610ae66020830186610aa6565b610af36040830185610ab5565b610b006060830184610ab5565b95945050505050565b6000602082019050610b1e6000830184610aa6565b92915050565b600060208284031215610b3a57610b396108fb565b5b6000610b488482850161094e565b91505092915050565b600081519050610b608161096d565b92915050565b600080fd5b600080fd5b6000601f19601f8301169050919050565b7f4e487b7100000000000000000000000000000000000000000000000000000000600052604160045260246000fd5b610bb982610b70565b810181811067ffffffffffffffff82111715610bd857610bd7610b81565b5b80604052505050565b6000610beb6108f1565b9050610bf78282610bb0565b919050565b600067ffffffffffffffff821115610c1757610c16610b81565b5b610c2082610b70565b9050602081019050919050565b60005b83811015610c4b578082015181840152602081019050610c30565b60008484015250505050565b6000610c6a610c6584610bfc565b610be1565b905082815260208101848484011115610c8657610c85610b6b565b5b610c91848285610c2d565b509392505050565b600082601f830112610cae57610cad610b66565b5b8151610cbe848260208601610c57565b91505092915050565b60008115159050919050565b610cdc81610cc7565b8114610ce757600080fd5b50565b600081519050610cf981610cd3565b92915050565b60008060008060808587031215610d1957610d186108fb565b5b6000610d2787828801610b51565b945050602085015167ffffffffffffffff811115610d4857610d47610900565b5b610d5487828801610c99565b935050604085015167ffffffffffffffff811115610d7557610d74610900565b5b610d8187828801610c99565b9250506060610d9287828801610cea565b91505092959194509250565b600082825260208201905092915050565b7f5573657231206e6f742072656769737465726564000000000000000000000000600082015250565b6000610de5601483610d9e565b9150610df082610daf565b602082019050919050565b60006020820190508181036000830152610e1481610dd8565b9050919050565b7f5573657232206e6f742072656769737465726564000000000000000000000000600082015250565b6000610e51601483610d9e565b9150610e5c82610e1b565b602082019050919050565b60006020820190508181036000830152610e8081610e44565b9050919050565b6000602082019050610e9c6000830184610ab5565b9291505056fea264697066735822122058de489d8893cba59f9f9a078476bff7805cfd857ffaa5840c81e7db987be2b564736f6c634300081c0033",
  "linkReferences": {},
  "deployedLinkReferences": {}
}