{
  "_format": "hh-sol-artifact-1",
  "contractName": "UserRegistry",
  "sourceName": "contracts/UserRegistry.sol",
  "abi": [
    {
      "inputs": [
        {
          "internalType": "address",
          "name": "initialOwner",
          "type": "address"
        }
      ],
      "stateMutability": "nonpayable",
      "type": "constructor"
    },
    {
      "inputs": [
        {
          "internalType": "address",
          "name": "owner",
          "type": "address"
        }
      ],
      "name": "OwnableInvalidOwner",
      "type": "error"
    },
    {
      "inputs": [
        {
          "internalType": "address",
          "name": "account",
          "type": "address"
        }
      ],
      "name": "OwnableUnauthorizedAccount",
      "type": "error"
    },
    {
      "anonymous": false,
      "inputs": [
        {
          "indexed": true,
          "internalType": "address",
          "name": "previousOwner",
          "type": "address"
        },
        {
          "indexed": true,
          "internalType": "address",
          "name": "newOwner",
          "type": "address"
        }
      ],
      "name": "OwnershipTransferred",
      "type": "event"
    },
    {
      "inputs": [],
      "name": "owner",
      "outputs": [
        {
          "internalType": "address",
          "name": "",
          "type": "address"
        }
      ],
      "stateMutability": "view",
      "type": "function"
    },
    {
      "inputs": [
        {
          "internalType": "uint256",
          "name": "age",
          "type": "uint256"
        },
        {
          "internalType": "string",
          "name": "gender",
          "type": "string"
        },
        {
          "internalType": "string",
          "name": "tags",
          "type": "string"
        }
      ],
      "name": "register",
      "outputs": [],
      "stateMutability": "nonpayable",
      "type": "function"
    },
    {
      "inputs": [],
      "name": "renounceOwnership",
      "outputs": [],
      "stateMutability": "nonpayable",
      "type": "function"
    },
    {
      "inputs": [
        {
          "internalType": "address",
          "name": "newOwner",
          "type": "address"
        }
      ],
      "name": "transferOwnership",
      "outputs": [],
      "stateMutability": "nonpayable",
      "type": "function"
    },
    {
      "inputs": [
        {
          "internalType": "address",
          "name": "",
          "type": "address"
        }
      ],
      "name": "users",
      "outputs": [
        {
          "internalType": "uint256",
          "name": "age",
          "type": "uint256"
        },
        {
          "internalType": "string",
          "name": "gender",
          "type": "string"
        },
        {
          "internalType": "string",
          "name": "tags",
          "type": "string"
        },
        {
          "internalType": "bool",
          "name": "registered",
          "type": "bool"
        }
      ],
      "stateMutability": "view",
      "type": "function"
    }
  ],
  "bytecode": "0x608060405234801561001057600080fd5b50604051610e3b380380610e3b833981810160405281019061003291906101e2565b80600073ffffffffffffffffffffffffffffffffffffffff168173ffffffffffffffffffffffffffffffffffffffff16036100a55760006040517f1e4fbdf700000000000000000000000000000000000000000000000000000000815260040161009c919061021e565b60405180910390fd5b6100b4816100bb60201b60201c565b5050610239565b60008060009054906101000a900473ffffffffffffffffffffffffffffffffffffffff169050816000806101000a81548173ffffffffffffffffffffffffffffffffffffffff021916908373ffffffffffffffffffffffffffffffffffffffff1602179055508173ffffffffffffffffffffffffffffffffffffffff168173ffffffffffffffffffffffffffffffffffffffff167f8be0079c531659141344cd1fd0a4f28419497f9722a3daafe3b4186f6b6457e060405160405180910390a35050565b600080fd5b600073ffffffffffffffffffffffffffffffffffffffff82169050919050565b60006101af82610184565b9050919050565b6101bf816101a4565b81146101ca57600080fd5b50565b6000815190506101dc816101b6565b92915050565b6000602082840312156101f8576101f761017f565b5b6000610206848285016101cd565b91505092915050565b610218816101a4565b82525050565b6000602082019050610233600083018461020f565b92915050565b610bf3806102486000396000f3fe608060405234801561001057600080fd5b50600436106100575760003560e01c8063715018a61461005c5780638d28dda8146100665780638da5cb5b14610082578063a87430ba146100a0578063f2fde38b146100d3575b600080fd5b6100646100ef565b005b610080600480360381019061007b91906106a3565b610103565b005b61008a6101c4565b604051610097919061076f565b60405180910390f35b6100ba60048036038101906100b591906107b6565b6101ed565b6040516100ca949392919061088c565b60405180910390f35b6100ed60048036038101906100e891906107b6565b61033a565b005b6100f76103c0565b6101016000610447565b565b604051806080016040528084815260200183815260200182815260200160011515815250600160003373ffffffffffffffffffffffffffffffffffffffff1673ffffffffffffffffffffffffffffffffffffffff1681526020019081526020016000206000820151816000015560208201518160010190816101859190610aeb565b50604082015181600201908161019b9190610aeb565b5060608201518160030160006101000a81548160ff021916908315150217905550905050505050565b60008060009054906101000a900473ffffffffffffffffffffffffffffffffffffffff16905090565b60016020528060005260406000206000915090508060000154908060010180546102169061090e565b80601f01602080910402602001604051908101604052809291908181526020018280546102429061090e565b801561028f5780601f106102645761010080835404028352916020019161028f565b820191906000526020600020905b81548152906001019060200180831161027257829003601f168201915b5050505050908060020180546102a49061090e565b80601f01602080910402602001604051908101604052809291908181526020018280546102d09061090e565b801561031d5780601f106102f25761010080835404028352916020019161031d565b820191906000526020600020905b81548152906001019060200180831161030057829003601f168201915b5050505050908060030160009054906101000a900460ff16905084565b6103426103c0565b600073ffffffffffffffffffffffffffffffffffffffff168173ffffffffffffffffffffffffffffffffffffffff16036103b45760006040517f1e4fbdf70000000000000000000000000000000000000000000000000000000081526004016103ab919061076f565b60405180910390fd5b6103bd81610447565b50565b6103c861050b565b73ffffffffffffffffffffffffffffffffffffffff166103e66101c4565b73ffffffffffffffffffffffffffffffffffffffff16146104455761040961050b565b6040517f118cdaa700000000000000000000000000000000000000000000000000000000815260040161043c919061076f565b60405180910390fd5b565b60008060009054906101000a900473ffffffffffffffffffffffffffffffffffffffff169050816000806101000a81548173ffffffffffffffffffffffffffffffffffffffff021916908373ffffffffffffffffffffffffffffffffffffffff1602179055508173ffffffffffffffffffffffffffffffffffffffff168173ffffffffffffffffffffffffffffffffffffffff167f8be0079c531659141344cd1fd0a4f28419497f9722a3daafe3b4186f6b6457e060405160405180910390a35050565b600033905090565b6000604051905090565b600080fd5b600080fd5b6000819050919050565b61053a81610527565b811461054557600080fd5b50565b60008135905061055781610531565b92915050565b600080fd5b600080fd5b6000601f19601f8301169050919050565b7f4e487b7100000000000000000000000000000000000000000000000000000000600052604160045260246000fd5b6105b082610567565b810181811067ffffffffffffffff821117156105cf576105ce610578565b5b80604052505050565b60006105e2610513565b90506105ee82826105a7565b919050565b600067ffffffffffffffff82111561060e5761060d610578565b5b61061782610567565b9050602081019050919050565b82818337600083830152505050565b6000610646610641846105f3565b6105d8565b90508281526020810184848401111561066257610661610562565b5b61066d848285610624565b509392505050565b600082601f83011261068a5761068961055d565b5b813561069a848260208601610633565b91505092915050565b6000806000606084860312156106bc576106bb61051d565b5b60006106ca86828701610548565b935050602084013567ffffffffffffffff8111156106eb576106ea610522565b5b6106f786828701610675565b925050604084013567ffffffffffffffff81111561071857610717610522565b5b61072486828701610675565b9150509250925092565b600073ffffffffffffffffffffffffffffffffffffffff82169050919050565b60006107598261072e565b9050919050565b6107698161074e565b82525050565b60006020820190506107846000830184610760565b92915050565b6107938161074e565b811461079e57600080fd5b50565b6000813590506107b08161078a565b92915050565b6000602082840312156107cc576107cb61051d565b5b60006107da848285016107a1565b91505092915050565b6107ec81610527565b82525050565b600081519050919050565b600082825260208201905092915050565b60005b8381101561082c578082015181840152602081019050610811565b60008484015250505050565b6000610843826107f2565b61084d81856107fd565b935061085d81856020860161080e565b61086681610567565b840191505092915050565b60008115159050919050565b61088681610871565b82525050565b60006080820190506108a160008301876107e3565b81810360208301526108b38186610838565b905081810360408301526108c78185610838565b90506108d6606083018461087d565b95945050505050565b7f4e487b7100000000000000000000000000000000000000000000000000000000600052602260045260246000fd5b6000600282049050600182168061092657607f821691505b602082108103610939576109386108df565b5b50919050565b60008190508160005260206000209050919050565b60006020601f8301049050919050565b600082821b905092915050565b6000600883026109a17fffffffffffffffffffffffffffffffffffffffffffffffffffffffffffffffff82610964565b6109ab8683610964565b95508019841693508086168417925050509392505050565b6000819050919050565b60006109e86109e36109de84610527565b6109c3565b610527565b9050919050565b6000819050919050565b610a02836109cd565b610a16610a0e826109ef565b848454610971565b825550505050565b600090565b610a2b610a1e565b610a368184846109f9565b505050565b5b81811015610a5a57610a4f600082610a23565b600181019050610a3c565b5050565b601f821115610a9f57610a708161093f565b610a7984610954565b81016020851015610a88578190505b610a9c610a9485610954565b830182610a3b565b50505b505050565b600082821c905092915050565b6000610ac260001984600802610aa4565b1980831691505092915050565b6000610adb8383610ab1565b9150826002028217905092915050565b610af4826107f2565b67ffffffffffffffff811115610b0d57610b0c610578565b5b610b17825461090e565b610b22828285610a5e565b600060209050601f831160018114610b555760008415610b43578287015190505b610b4d8582610acf565b865550610bb5565b601f198416610b638661093f565b60005b82811015610b8b57848901518255600182019150602085019450602081019050610b66565b86831015610ba85784890151610ba4601f891682610ab1565b8355505b6001600288020188555050505b50505050505056fea2646970667358221220faaa4465af72a961be36fb2f601b8caa185d869eb1ad904e19e63cfa41f95c2964736f6c634300081c0033",
  "linkReferences": {},
  "deployedLinkReferences": {}
}