{
  "_format": "hh-sol-artifact-1",
  "contractName": "Matchmaker",
  "sourceName": "contracts/Matchmaker.sol",
  "abi": [
    {
      "inputs": [
        {
          "internalType": "address",
          "name": "initialOwner",
          "type": "address"
        }
      ],
      "stateMutability": "nonpayable",
      "type": "constructor"
    },
    {
      "inputs": [
        {
          "internalType": "address",
          "name": "owner",
          "type": "address"
        }
      ],
      "name": "OwnableInvalidOwner",
      "type": "error"
    },
    {
      "inputs": [
        {
          "internalType": "address",
          "name": "account",
          "type": "address"
        }
      ],
      "name": "OwnableUnauthorizedAccount",
      "type": "error"
    },
    {
      "anonymous": false,
      "inputs": [
        {
          "indexed": true,
          "internalType": "address",
          "name": "previousOwner",
          "type": "address"
        },
        {
          "indexed": true,
          "internalType": "address",
          "name": "newOwner",
          "type": "address"
        }
      ],
      "name": "OwnershipTransferred",
      "type": "event"
    },
    {
      "inputs": [
        {
          "internalType": "address",
          "name": "user1",
          "type": "address"
        },
        {
          "internalType": "address",
          "name": "user2",
          "type": "address"
        }
      ],
      "name": "getMatch",
      "outputs": [
        {
          "internalType": "uint256",
          "name": "",
          "type": "uint256"
        },
        {
          "internalType": "string",
          "name": "",
          "type": "string"
        }
      ],
      "stateMutability": "view",
      "type": "function"
    },
    {
      "inputs": [
        {
          "internalType": "address",
          "name": "",
          "type": "address"
        },
        {
          "internalType": "address",
          "name": "",
          "type": "address"
        }
      ],
      "name": "matches",
      "outputs": [
        {
          "internalType": "uint256",
          "name": "score",
          "type": "uint256"
        },
        {
          "internalType": "string",
          "name": "encryptedDecision",
          "type": "string"
        }
      ],
      "stateMutability": "view",
      "type": "function"
    },
    {
      "inputs": [],
      "name": "owner",
      "outputs": [
        {
          "internalType": "address",
          "name": "",
          "type": "address"
        }
      ],
      "stateMutability": "view",
      "type": "function"
    },
    {
      "inputs": [],
      "name": "renounceOwnership",
      "outputs": [],
      "stateMutability": "nonpayable",
      "type": "function"
    },
    {
      "inputs": [
        {
          "internalType": "address",
          "name": "user1",
          "type": "address"
        },
        {
          "internalType": "address",
          "name": "user2",
          "type": "address"
        },
        {
          "internalType": "uint256",
          "name": "score",
          "type": "uint256"
        },
        {
          "internalType": "string",
          "name": "encryptedDecision",
          "type": "string"
        }
      ],
      "name": "setMatch",
      "outputs": [],
      "stateMutability": "nonpayable",
      "type": "function"
    },
    {
      "inputs": [
        {
          "internalType": "address",
          "name": "newOwner",
          "type": "address"
        }
      ],
      "name": "transferOwnership",
      "outputs": [],
      "stateMutability": "nonpayable",
      "type": "function"
    }
  ],
  "bytecode": "0x608060405234801561001057600080fd5b50604051610f1d380380610f1d833981810160405281019061003291906101e2565b80600073ffffffffffffffffffffffffffffffffffffffff168173ffffffffffffffffffffffffffffffffffffffff16036100a55760006040517f1e4fbdf700000000000000000000000000000000000000000000000000000000815260040161009c919061021e565b60405180910390fd5b6100b4816100bb60201b60201c565b5050610239565b60008060009054906101000a900473ffffffffffffffffffffffffffffffffffffffff169050816000806101000a81548173ffffffffffffffffffffffffffffffffffffffff021916908373ffffffffffffffffffffffffffffffffffffffff1602179055508173ffffffffffffffffffffffffffffffffffffffff168173ffffffffffffffffffffffffffffffffffffffff167f8be0079c531659141344cd1fd0a4f28419497f9722a3daafe3b4186f6b6457e060405160405180910390a35050565b600080fd5b600073ffffffffffffffffffffffffffffffffffffffff82169050919050565b60006101af82610184565b9050919050565b6101bf816101a4565b81146101ca57600080fd5b50565b6000815190506101dc816101b6565b92915050565b6000602082840312156101f8576101f761017f565b5b6000610206848285016101cd565b91505092915050565b610218816101a4565b82525050565b6000602082019050610233600083018461020f565b92915050565b610cd5806102486000396000f3fe608060405234801561001057600080fd5b50600436106100625760003560e01c80630c80a63914610067578063715018a6146100835780638cca68821461008d5780638da5cb5b146100be578063e459d8f9146100dc578063f2fde38b1461010d575b600080fd5b610081600480360381019061007c91906107e9565b610129565b005b61008b6101eb565b005b6100a760048036038101906100a2919061086c565b6101ff565b6040516100b592919061093a565b60405180910390f35b6100c66102b8565b6040516100d39190610979565b60405180910390f35b6100f660048036038101906100f1919061086c565b6102e1565b60405161010492919061093a565b60405180910390f35b61012760048036038101906101229190610994565b610422565b005b6101316104a8565b604051806040016040528083815260200182815250600160008673ffffffffffffffffffffffffffffffffffffffff1673ffffffffffffffffffffffffffffffffffffffff16815260200190815260200160002060008573ffffffffffffffffffffffffffffffffffffffff1673ffffffffffffffffffffffffffffffffffffffff1681526020019081526020016000206000820151816000015560208201518160010190816101e19190610bcd565b5090505050505050565b6101f36104a8565b6101fd600061052f565b565b600160205281600052604060002060205280600052604060002060009150915050806000015490806001018054610235906109f0565b80601f0160208091040260200160405190810160405280929190818152602001828054610261906109f0565b80156102ae5780601f10610283576101008083540402835291602001916102ae565b820191906000526020600020905b81548152906001019060200180831161029157829003601f168201915b5050505050905082565b60008060009054906101000a900473ffffffffffffffffffffffffffffffffffffffff16905090565b600060606000600160008673ffffffffffffffffffffffffffffffffffffffff1673ffffffffffffffffffffffffffffffffffffffff16815260200190815260200160002060008573ffffffffffffffffffffffffffffffffffffffff1673ffffffffffffffffffffffffffffffffffffffff16815260200190815260200160002060405180604001604052908160008201548152602001600182018054610388906109f0565b80601f01602080910402602001604051908101604052809291908181526020018280546103b4906109f0565b80156104015780601f106103d657610100808354040283529160200191610401565b820191906000526020600020905b8154815290600101906020018083116103e457829003601f168201915b50505050508152505090508060000151816020015192509250509250929050565b61042a6104a8565b600073ffffffffffffffffffffffffffffffffffffffff168173ffffffffffffffffffffffffffffffffffffffff160361049c5760006040517f1e4fbdf70000000000000000000000000000000000000000000000000000000081526004016104939190610979565b60405180910390fd5b6104a58161052f565b50565b6104b06105f3565b73ffffffffffffffffffffffffffffffffffffffff166104ce6102b8565b73ffffffffffffffffffffffffffffffffffffffff161461052d576104f16105f3565b6040517f118cdaa70000000000000000000000000000000000000000000000000000000081526004016105249190610979565b60405180910390fd5b565b60008060009054906101000a900473ffffffffffffffffffffffffffffffffffffffff169050816000806101000a81548173ffffffffffffffffffffffffffffffffffffffff021916908373ffffffffffffffffffffffffffffffffffffffff1602179055508173ffffffffffffffffffffffffffffffffffffffff168173ffffffffffffffffffffffffffffffffffffffff167f8be0079c531659141344cd1fd0a4f28419497f9722a3daafe3b4186f6b6457e060405160405180910390a35050565b600033905090565b6000604051905090565b600080fd5b600080fd5b600073ffffffffffffffffffffffffffffffffffffffff82169050919050565b600061063a8261060f565b9050919050565b61064a8161062f565b811461065557600080fd5b50565b60008135905061066781610641565b92915050565b6000819050919050565b6106808161066d565b811461068b57600080fd5b50565b60008135905061069d81610677565b92915050565b600080fd5b600080fd5b6000601f19601f8301169050919050565b7f4e487b7100000000000000000000000000000000000000000000000000000000600052604160045260246000fd5b6106f6826106ad565b810181811067ffffffffffffffff82111715610715576107146106be565b5b80604052505050565b60006107286105fb565b905061073482826106ed565b919050565b600067ffffffffffffffff821115610754576107536106be565b5b61075d826106ad565b9050602081019050919050565b82818337600083830152505050565b600061078c61078784610739565b61071e565b9050828152602081018484840111156107a8576107a76106a8565b5b6107b384828561076a565b509392505050565b600082601f8301126107d0576107cf6106a3565b5b81356107e0848260208601610779565b91505092915050565b6000806000806080858703121561080357610802610605565b5b600061081187828801610658565b945050602061082287828801610658565b93505060406108338782880161068e565b925050606085013567ffffffffffffffff8111156108545761085361060a565b5b610860878288016107bb565b91505092959194509250565b6000806040838503121561088357610882610605565b5b600061089185828601610658565b92505060206108a285828601610658565b9150509250929050565b6108b58161066d565b82525050565b600081519050919050565b600082825260208201905092915050565b60005b838110156108f55780820151818401526020810190506108da565b60008484015250505050565b600061090c826108bb565b61091681856108c6565b93506109268185602086016108d7565b61092f816106ad565b840191505092915050565b600060408201905061094f60008301856108ac565b81810360208301526109618184610901565b90509392505050565b6109738161062f565b82525050565b600060208201905061098e600083018461096a565b92915050565b6000602082840312156109aa576109a9610605565b5b60006109b884828501610658565b91505092915050565b7f4e487b7100000000000000000000000000000000000000000000000000000000600052602260045260246000fd5b60006002820490506001821680610a0857607f821691505b602082108103610a1b57610a1a6109c1565b5b50919050565b60008190508160005260206000209050919050565b60006020601f8301049050919050565b600082821b905092915050565b600060088302610a837fffffffffffffffffffffffffffffffffffffffffffffffffffffffffffffffff82610a46565b610a8d8683610a46565b95508019841693508086168417925050509392505050565b6000819050919050565b6000610aca610ac5610ac08461066d565b610aa5565b61066d565b9050919050565b6000819050919050565b610ae483610aaf565b610af8610af082610ad1565b848454610a53565b825550505050565b600090565b610b0d610b00565b610b18818484610adb565b505050565b5b81811015610b3c57610b31600082610b05565b600181019050610b1e565b5050565b601f821115610b8157610b5281610a21565b610b5b84610a36565b81016020851015610b6a578190505b610b7e610b7685610a36565b830182610b1d565b50505b505050565b600082821c905092915050565b6000610ba460001984600802610b86565b1980831691505092915050565b6000610bbd8383610b93565b9150826002028217905092915050565b610bd6826108bb565b67ffffffffffffffff811115610bef57610bee6106be565b5b610bf982546109f0565b610c04828285610b40565b600060209050601f831160018114610c375760008415610c25578287015190505b610c2f8582610bb1565b865550610c97565b601f198416610c4586610a21565b60005b82811015610c6d57848901518255600182019150602085019450602081019050610c48565b86831015610c8a5784890151610c86601f891682610b93565b8355505b6001600288020188555050505b50505050505056fea264697066735822122060aba0fd664b2a41161185e6c1b4c5ccf8dc8bf8c4cf0033a3ba4af5a05270a264736f6c634300081c0033",
  "linkReferences": {},
  "deployedLinkReferences": {}
}